{
  "_format": "hh-sol-artifact-1",
  "contractName": "Bullet2",
  "sourceName": "solidity/contracts/blendingworlds.sol/services/bullet/Bullet2.sol",
  "abi": [
    {
      "inputs": [
        {
          "internalType": "address",
          "name": "_container",
          "type": "address"
        }
      ],
      "stateMutability": "nonpayable",
      "type": "constructor"
    },
    {
      "anonymous": false,
      "inputs": [
        {
          "indexed": false,
          "internalType": "uint64",
          "name": "_outChannelId",
          "type": "uint64"
        }
      ],
      "name": "channelCreated",
      "type": "event"
    },
    {
      "inputs": [],
      "name": "SALT",
      "outputs": [
        {
          "internalType": "string",
          "name": "",
          "type": "string"
        }
      ],
      "stateMutability": "view",
      "type": "function"
    },
    {
      "inputs": [
        {
          "internalType": "uint64",
          "name": "_channelId",
          "type": "uint64"
        },
        {
          "internalType": "address",
          "name": "_publisher",
          "type": "address"
        },
        {
          "internalType": "uint8",
          "name": "_v",
          "type": "uint8"
        },
        {
          "internalType": "bytes32",
          "name": "_r",
          "type": "bytes32"
        },
        {
          "internalType": "bytes32",
          "name": "_s",
          "type": "bytes32"
        }
      ],
      "name": "assignPublisher",
      "outputs": [
        {
          "internalType": "bool",
          "name": "",
          "type": "bool"
        }
      ],
      "stateMutability": "nonpayable",
      "type": "function"
    },
    {
      "inputs": [
        {
          "internalType": "address",
          "name": "_owner",
          "type": "address"
        },
        {
          "internalType": "bytes",
          "name": "_title",
          "type": "bytes"
        },
        {
          "internalType": "uint8",
          "name": "_v",
          "type": "uint8"
        },
        {
          "internalType": "bytes32",
          "name": "_r",
          "type": "bytes32"
        },
        {
          "internalType": "bytes32",
          "name": "_s",
          "type": "bytes32"
        }
      ],
      "name": "bind",
      "outputs": [],
      "stateMutability": "nonpayable",
      "type": "function"
    },
    {
      "inputs": [
        {
          "internalType": "uint64",
          "name": "_channelId",
          "type": "uint64"
        },
        {
          "internalType": "bytes8",
          "name": "_encoding",
          "type": "bytes8"
        },
        {
          "internalType": "bytes",
          "name": "_text",
          "type": "bytes"
        },
        {
          "internalType": "uint8",
          "name": "_v",
          "type": "uint8"
        },
        {
          "internalType": "bytes32",
          "name": "_r",
          "type": "bytes32"
        },
        {
          "internalType": "bytes32",
          "name": "_s",
          "type": "bytes32"
        }
      ],
      "name": "fire",
      "outputs": [
        {
          "internalType": "uint64",
          "name": "",
          "type": "uint64"
        }
      ],
      "stateMutability": "nonpayable",
      "type": "function"
    },
    {
      "inputs": [
        {
          "internalType": "uint64",
          "name": "_index",
          "type": "uint64"
        }
      ],
      "name": "getChannel",
      "outputs": [
        {
          "internalType": "address",
          "name": "",
          "type": "address"
        }
      ],
      "stateMutability": "view",
      "type": "function"
    },
    {
      "inputs": [],
      "name": "getMinorVersion",
      "outputs": [
        {
          "internalType": "uint16",
          "name": "",
          "type": "uint16"
        }
      ],
      "stateMutability": "pure",
      "type": "function"
    },
    {
      "inputs": [],
      "name": "getServiceId",
      "outputs": [
        {
          "internalType": "bytes16",
          "name": "",
          "type": "bytes16"
        }
      ],
      "stateMutability": "pure",
      "type": "function"
    },
    {
      "inputs": [
        {
          "internalType": "uint64",
          "name": "_from",
          "type": "uint64"
        },
        {
          "internalType": "uint64",
          "name": "_count",
          "type": "uint64"
        }
      ],
      "name": "listChannels",
      "outputs": [
        {
          "components": [
            {
              "internalType": "address",
              "name": "origin",
              "type": "address"
            },
            {
              "internalType": "bytes",
              "name": "title",
              "type": "bytes"
            },
            {
              "internalType": "uint64",
              "name": "shotsCount",
              "type": "uint64"
            }
          ],
          "internalType": "struct IBullet2.ChannelInfo[]",
          "name": "",
          "type": "tuple[]"
        }
      ],
      "stateMutability": "view",
      "type": "function"
    },
    {
      "inputs": [
        {
          "internalType": "uint64",
          "name": "_channelId",
          "type": "uint64"
        },
        {
          "internalType": "bytes",
          "name": "_title",
          "type": "bytes"
        },
        {
          "internalType": "uint8",
          "name": "_v",
          "type": "uint8"
        },
        {
          "internalType": "bytes32",
          "name": "_r",
          "type": "bytes32"
        },
        {
          "internalType": "bytes32",
          "name": "_s",
          "type": "bytes32"
        }
      ],
      "name": "rename",
      "outputs": [],
      "stateMutability": "nonpayable",
      "type": "function"
    },
    {
      "inputs": [
        {
          "internalType": "uint64",
          "name": "_channelId",
          "type": "uint64"
        },
        {
          "internalType": "address",
          "name": "_newOwner",
          "type": "address"
        },
        {
          "internalType": "uint8",
          "name": "_v",
          "type": "uint8"
        },
        {
          "internalType": "bytes32",
          "name": "_r",
          "type": "bytes32"
        },
        {
          "internalType": "bytes32",
          "name": "_s",
          "type": "bytes32"
        }
      ],
      "name": "transfer",
      "outputs": [
        {
          "internalType": "bool",
          "name": "",
          "type": "bool"
        }
      ],
      "stateMutability": "nonpayable",
      "type": "function"
    }
  ],
  "bytecode": "0x608060405234801561001057600080fd5b506040516123ab3803806123ab83398101604081905261002f91610054565b600080546001600160a01b0319166001600160a01b0392909216919091179055610084565b60006020828403121561006657600080fd5b81516001600160a01b038116811461007d57600080fd5b9392505050565b612318806100936000396000f3fe60806040523480156200001157600080fd5b5060043610620000ab5760003560e01c8063a329bf59116200006e578063a329bf591462000183578063b8129eeb14620001b3578063ba9a91a514620001ca578063eceb86531462000216578063feb33938146200022d57600080fd5b80630b62361c14620000b05780630e36aeec14620000dc578063234b0450146200010257806338dd1e3c1462000150578063392928181462000169575b600080fd5b620000c7620000c1366004620009c3565b6200023d565b60405190151581526020015b60405180910390f35b620000f3620000ed36600462000a21565b620002f5565b604051620000d3919062000ab3565b620001376200011336600462000b4c565b6001600160401b03166000908152600160205260409020546001600160a01b031690565b6040516001600160a01b039091168152602001620000d3565b620001676200016136600462000c42565b62000542565b005b60405167212aa62622aa171960c11b8152602001620000d3565b6200019a6200019436600462000ca1565b6200073a565b6040516001600160401b039091168152602001620000d3565b620000c7620001c4366004620009c3565b620007e8565b620002076040518060400160405280601c81526020017f19457468657265756d205369676e6564204d6573736167653a0a33320000000081525081565b604051620000d3919062000d3b565b620001676200022736600462000d50565b62000855565b60405160018152602001620000d3565b600062000249620008e9565b6001600160401b03861660009081526001602052604090819020549051637d950eab60e01b81526001600160a01b03878116600483015260ff87166024830152604482018690526064820185905290911690637d950eab906084015b6020604051808303816000875af1158015620002c5573d6000803e3d6000fd5b505050506040513d601f19601f82011682018060405250810190620002eb919062000d76565b9695505050505050565b6060612710826001600160401b0316106200030f57600080fd5b6000826001600160401b03166001600160401b0381111562000335576200033562000b73565b6040519080825280602002602001820160405280156200039f57816020015b6200038b604051806060016040528060006001600160a01b031681526020016060815260200160006001600160401b031681525090565b815260200190600190039081620003545790505b50905060005b836001600160401b0316816001600160401b031610156200053a576000600181620003d1848962000db0565b6001600160401b031681526020810191909152604001600020546001600160a01b0316905080156200052457600080826001600160a01b031663370158ea6040518163ffffffff1660e01b8152600401600060405180830381865afa1580156200043f573d6000803e3d6000fd5b505050506040513d6000823e601f3d908101601f1916820160405262000469919081019062000dda565b915091508285856001600160401b0316815181106200048c576200048c62000e67565b6020026020010151600001906001600160a01b031690816001600160a01b0316815250508185856001600160401b031681518110620004cf57620004cf62000e67565b6020026020010151602001819052508085856001600160401b031681518110620004fd57620004fd62000e67565b6020026020010151604001906001600160401b031690816001600160401b03168152505050505b5080620005318162000e7d565b915050620003a5565b509392505050565b6200054c620008e9565b60006040518060400160405280601c81526020017f19457468657265756d205369676e6564204d6573736167653a0a33320000000081525085805190602001206040516020016200059f92919062000ea6565b60408051601f198184030181528282528051602091820120600080855291840180845281905260ff88169284019290925260608301869052608083018590529092509060019060a0016020604051602081039080840390855afa1580156200060b573d6000803e3d6000fd5b505050602060405103519050866001600160a01b0316816001600160a01b0316146200063657600080fd5b6000546001600160a01b0316878760405162000652906200096d565b620006609392919062000eca565b604051809103906000f0801580156200067d573d6000803e3d6000fd5b50600280546001600160401b0390811660009081526001602090815260409182902080546001600160a01b0319166001600160a01b03969096169590951790945591549151911681527f8a55fa2939a25ec3863c9cda0999f0f52bbb424d416fe454bdaebbd831bb7b45910160405180910390a1600280546001600160401b03169060006200070c8362000e7d565b91906101000a8154816001600160401b0302191690836001600160401b031602179055505050505050505050565b600062000746620008e9565b6001600160401b0387166000908152600160205260409081902054905163b78ee0e360e01b81526001600160a01b039091169063b78ee0e39062000797908990899089908990899060040162000f01565b6020604051808303816000875af1158015620007b7573d6000803e3d6000fd5b505050506040513d601f19601f82011682018060405250810190620007dd919062000f48565b979650505050505050565b6000620007f4620008e9565b6001600160401b0386166000908152600160205260409081902054905163de0246d560e01b81526001600160a01b03878116600483015260ff8716602483015260448201869052606482018590529091169063de0246d590608401620002a5565b6200085f620008e9565b6001600160401b03851660009081526001602052604090819020549051630684539960e41b81526001600160a01b0390911690636845399090620008ae90879087908790879060040162000f68565b600060405180830381600087803b158015620008c957600080fd5b505af1158015620008de573d6000803e3d6000fd5b505050505050505050565b60008054906101000a90046001600160a01b03166001600160a01b031663352151fb6040518163ffffffff1660e01b8152600401602060405180830381865afa1580156200093b573d6000803e3d6000fd5b505050506040513d601f19601f8201168201806040525081019062000961919062000d76565b6200096b57600080fd5b565b6113468062000f9d83390190565b6001600160401b03811681146200099157600080fd5b50565b80356001600160a01b0381168114620009ac57600080fd5b919050565b803560ff81168114620009ac57600080fd5b600080600080600060a08688031215620009dc57600080fd5b8535620009e9816200097b565b9450620009f96020870162000994565b935062000a0960408701620009b1565b94979396509394606081013594506080013592915050565b6000806040838503121562000a3557600080fd5b823562000a42816200097b565b9150602083013562000a54816200097b565b809150509250929050565b60005b8381101562000a7c57818101518382015260200162000a62565b50506000910152565b6000815180845262000a9f81602086016020860162000a5f565b601f01601f19169290920160200192915050565b60006020808301818452808551808352604092508286019150828160051b87010184880160005b8381101562000b3e57888303603f19018552815180516001600160a01b031684528781015160608986018190529062000b168287018262000a85565b928901516001600160401b031695890195909552509487019492509086019060010162000ada565b509098975050505050505050565b60006020828403121562000b5f57600080fd5b813562000b6c816200097b565b9392505050565b634e487b7160e01b600052604160045260246000fd5b604051601f8201601f191681016001600160401b038111828210171562000bb45762000bb462000b73565b604052919050565b60006001600160401b0382111562000bd85762000bd862000b73565b50601f01601f191660200190565b600082601f83011262000bf857600080fd5b813562000c0f62000c098262000bbc565b62000b89565b81815284602083860101111562000c2557600080fd5b816020850160208301376000918101602001919091529392505050565b600080600080600060a0868803121562000c5b57600080fd5b62000c668662000994565b945060208601356001600160401b0381111562000c8257600080fd5b62000c908882890162000be6565b94505062000a0960408701620009b1565b60008060008060008060c0878903121562000cbb57600080fd5b863562000cc8816200097b565b955060208701356001600160c01b03198116811462000ce657600080fd5b945060408701356001600160401b0381111562000d0257600080fd5b62000d1089828a0162000be6565b94505062000d2160608801620009b1565b92506080870135915060a087013590509295509295509295565b60208152600062000b6c602083018462000a85565b600080600080600060a0868803121562000d6957600080fd5b853562000c66816200097b565b60006020828403121562000d8957600080fd5b8151801515811462000b6c57600080fd5b634e487b7160e01b600052601160045260246000fd5b6001600160401b0381811683821601908082111562000dd35762000dd362000d9a565b5092915050565b6000806040838503121562000dee57600080fd5b82516001600160401b0381111562000e0557600080fd5b8301601f8101851362000e1757600080fd5b805162000e2862000c098262000bbc565b81815286602083850101111562000e3e57600080fd5b62000e5182602083016020860162000a5f565b809450505050602083015162000a54816200097b565b634e487b7160e01b600052603260045260246000fd5b60006001600160401b0380831681810362000e9c5762000e9c62000d9a565b6001019392505050565b6000835162000eba81846020880162000a5f565b9190910191825250602001919050565b6001600160a01b0384811682528316602082015260606040820181905260009062000ef89083018462000a85565b95945050505050565b6001600160401b0360c01b8616815260a06020820152600062000f2860a083018762000a85565b60ff95909516604083015250606081019290925260809091015292915050565b60006020828403121562000f5b57600080fd5b815162000b6c816200097b565b60808152600062000f7d608083018762000a85565b60ff95909516602083015250604081019290925260609091015291905056fe60806040523480156200001157600080fd5b5060405162001346380380620013468339810160408190526200003491620000d1565b60038054600160401b600160e01b031916680100000000000000006001600160a01b0386160217905560026200006b82826200025a565b5050600080546001600160a01b039092166001600160a01b03199283168117909155600180549092161790555062000326565b80516001600160a01b0381168114620000b657600080fd5b919050565b634e487b7160e01b600052604160045260246000fd5b600080600060608486031215620000e757600080fd5b620000f2846200009e565b92506020620001038186016200009e565b60408601519093506001600160401b03808211156200012157600080fd5b818701915087601f8301126200013657600080fd5b8151818111156200014b576200014b620000bb565b604051601f8201601f19908116603f01168101908382118183101715620001765762000176620000bb565b816040528281528a868487010111156200018f57600080fd5b600093505b82841015620001b3578484018601518185018701529285019262000194565b60008684830101528096505050505050509250925092565b600181811c90821680620001e057607f821691505b6020821081036200020157634e487b7160e01b600052602260045260246000fd5b50919050565b601f8211156200025557600081815260208120601f850160051c81016020861015620002305750805b601f850160051c820191505b8181101562000251578281556001016200023c565b5050505b505050565b81516001600160401b03811115620002765762000276620000bb565b6200028e81620002878454620001cb565b8462000207565b602080601f831160018114620002c65760008415620002ad5750858301515b600019600386901b1c1916600185901b17855562000251565b600085815260208120601f198616915b82811015620002f757888601518255948401946001909101908401620002d6565b5085821015620003165787850151600019600388901b60f8161c191681555b5050505050600190811b01905550565b61101080620003366000396000f3fe608060405234801561001057600080fd5b50600436106101005760003560e01c8063b78ee0e311610097578063de0246d511610066578063de0246d514610292578063e7bfc5bf146102a5578063fcd34456146102b0578063ff3c1a8f146102c157600080fd5b8063b78ee0e31461020a578063ba9a91a514610235578063caa120321461025f578063d507befa1461028157600080fd5b806366dd5cba116100d357806366dd5cba1461019857806368453990146101be5780637d950eab146101d357806386501e06146101e657600080fd5b806306f1bc8c146101055780632f54bf6e1461012e578063370158ea1461016057806341859ac814610176575b600080fd5b610118610113366004610aa9565b6102c9565b6040516101259190610b29565b60405180910390f35b61015061013c366004610b58565b6000546001600160a01b0390811691161490565b6040519015158152602001610125565b610168610375565b604051610125929190610b73565b610150610184366004610b58565b6001546001600160a01b0390811691161490565b6101a56252415760e81b81565b6040516001600160c01b03199091168152602001610125565b6101d16101cc366004610c51565b61041b565b005b6101506101e1366004610cad565b61055d565b6101f1605360f81b81565b6040516001600160f81b03199091168152602001610125565b61021d610218366004610cda565b6106ae565b6040516001600160401b039091168152602001610125565b6101186040518060400160405280601c8152602001600080516020610fbb83398151915281525081565b610273691514905394d19154915160b21b81565b604051908152602001610125565b610273661491539053515160ca1b81565b6101506102a0366004610cad565b6107b6565b6101f1605560f81b81565b6003546001600160401b031661021d565b610118610909565b6001600160401b03811660009081526004602052604090208054606091906102f090610d58565b80601f016020809104026020016040519081016040528092919081815260200182805461031c90610d58565b80156103695780601f1061033e57610100808354040283529160200191610369565b820191906000526020600020905b81548152906001019060200180831161034c57829003601f168201915b50505050509050919050565b606060006002805461038690610d58565b80601f01602080910402602001604051908101604052809291908181526020018280546103b290610d58565b80156103ff5780601f106103d4576101008083540402835291602001916103ff565b820191906000526020600020905b8154815290600101906020018083116103e257829003601f168201915b505060035493966001600160401b039094169550929350505050565b60035460405163d9bc05cb60e01b8152336004820152600160401b9091046001600160a01b03169063d9bc05cb90602401602060405180830381865afa158015610469573d6000803e3d6000fd5b505050506040513d601f19601f8201168201806040525081019061048d9190610d92565b61049657600080fd5b60006104ef6040518060400160405280601c8152602001600080516020610fbb83398151915281525086805190602001206040516020016104d8929190610db4565b60405160208183030381529060405285858561099b565b6000549091506001600160a01b0380831691161461050c57600080fd5b60026105188682610e21565b5060408051661491539053515160ca1b602082015261055591605360f81b916252415760e81b91015b604051602081830303815290604052610a0b565b505050505050565b60035460405163d9bc05cb60e01b8152336004820152600091600160401b90046001600160a01b03169063d9bc05cb90602401602060405180830381865afa1580156105ad573d6000803e3d6000fd5b505050506040513d601f19601f820116820180604052508101906105d19190610d92565b6105da57600080fd5b600061066a6040518060400160405280601c8152602001600080516020610fbb8339815191528152508760405160200161062c919060609190911b6bffffffffffffffffffffffff1916815260140190565b60405160208183030381529060405280519060200120604051602001610653929190610db4565b60405160208183030381529060405286868661099b565b6000549091506001600160a01b0380831691161461068757600080fd5b5050600180546001600160a01b0386166001600160a01b0319909116178155949350505050565b60035460405163d9bc05cb60e01b8152336004820152600091600160401b90046001600160a01b03169063d9bc05cb90602401602060405180830381865afa1580156106fe573d6000803e3d6000fd5b505050506040513d601f19601f820116820180604052508101906107229190610d92565b61072b57600080fd5b60006107676040518060400160405280601c8152602001600080516020610fbb833981519152815250888860405160200161062c929190610ee0565b6000549091506001600160a01b038083169116148061079357506001546001600160a01b038281169116145b61079c57600080fd5b6107ab605560f81b8888610a0b565b979650505050505050565b60035460405163d9bc05cb60e01b8152336004820152600091600160401b90046001600160a01b03169063d9bc05cb90602401602060405180830381865afa158015610806573d6000803e3d6000fd5b505050506040513d601f19601f8201168201806040525081019061082a9190610d92565b61083357600080fd5b60006108856040518060400160405280601c8152602001600080516020610fbb8339815191528152508760405160200161062c919060609190911b6bffffffffffffffffffffffff1916815260140190565b6000549091506001600160a01b038083169116146108a257600080fd5b600080546001600160a01b0388166001600160a01b0319918216811790925560018054909116909117905560408051691514905394d19154915160b21b60208201526108fc91605360f81b916252415760e81b9101610541565b5060019695505050505050565b60606002805461091890610d58565b80601f016020809104026020016040519081016040528092919081815260200182805461094490610d58565b80156109915780601f1061096657610100808354040283529160200191610991565b820191906000526020600020905b81548152906001019060200180831161097457829003601f168201915b5050505050905090565b83516020808601919091206040805160008082529381018083529290925260ff861690820152606081018490526080810183905260019060a0016020604051602081039080840390855afa1580156109f7573d6000803e3d6000fd5b5050604051601f1901519695505050505050565b600042848484604051602001610a249493929190610f11565b60408051601f198184030181529181526003546001600160401b0316600090815260046020522090610a569082610e21565b50600380546001600160401b0316906000610a7083610f6d565b82546101009290920a6001600160401b03818102199093169183160217909155600354610aa1925060019116610f93565b949350505050565b600060208284031215610abb57600080fd5b81356001600160401b0381168114610ad257600080fd5b9392505050565b60005b83811015610af4578181015183820152602001610adc565b50506000910152565b60008151808452610b15816020860160208601610ad9565b601f01601f19169290920160200192915050565b602081526000610ad26020830184610afd565b80356001600160a01b0381168114610b5357600080fd5b919050565b600060208284031215610b6a57600080fd5b610ad282610b3c565b604081526000610b866040830185610afd565b90506001600160401b03831660208301529392505050565b634e487b7160e01b600052604160045260246000fd5b600082601f830112610bc557600080fd5b81356001600160401b0380821115610bdf57610bdf610b9e565b604051601f8301601f19908116603f01168101908282118183101715610c0757610c07610b9e565b81604052838152866020858801011115610c2057600080fd5b836020870160208301376000602085830101528094505050505092915050565b803560ff81168114610b5357600080fd5b60008060008060808587031215610c6757600080fd5b84356001600160401b03811115610c7d57600080fd5b610c8987828801610bb4565b945050610c9860208601610c40565b93969395505050506040820135916060013590565b60008060008060808587031215610cc357600080fd5b610ccc85610b3c565b9350610c9860208601610c40565b600080600080600060a08688031215610cf257600080fd5b85356001600160c01b031981168114610d0a57600080fd5b945060208601356001600160401b03811115610d2557600080fd5b610d3188828901610bb4565b945050610d4060408701610c40565b94979396509394606081013594506080013592915050565b600181811c90821680610d6c57607f821691505b602082108103610d8c57634e487b7160e01b600052602260045260246000fd5b50919050565b600060208284031215610da457600080fd5b81518015158114610ad257600080fd5b60008351610dc6818460208801610ad9565b9190910191825250602001919050565b601f821115610e1c57600081815260208120601f850160051c81016020861015610dfd5750805b601f850160051c820191505b8181101561055557828155600101610e09565b505050565b81516001600160401b03811115610e3a57610e3a610b9e565b610e4e81610e488454610d58565b84610dd6565b602080601f831160018114610e835760008415610e6b5750858301515b600019600386901b1c1916600185901b178555610555565b600085815260208120601f198616915b82811015610eb257888601518255948401946001909101908401610e93565b5085821015610ed05787850151600019600388901b60f8161c191681555b5050505050600190811b01905550565b6001600160c01b0319831681528151600090610f03816008850160208701610ad9565b919091016008019392505050565b84815260ff60f81b841660208201526001600160401b0360c01b8316602182015260008251610f47816029850160208701610ad9565b9190910160290195945050505050565b634e487b7160e01b600052601160045260246000fd5b60006001600160401b03808316818103610f8957610f89610f57565b6001019392505050565b6001600160401b03828116828216039080821115610fb357610fb3610f57565b509291505056fe19457468657265756d205369676e6564204d6573736167653a0a333200000000a2646970667358221220edb0ea5381d2eb6a7b7c69e48d81ab92dce52bbde8c904224fda60db2ee73f8664736f6c63430008110033a264697066735822122045072da96c1b1445f4c73068973931809968d8fd532019e73af6d415d35ee4cc64736f6c63430008110033",
  "linkReferences": {},
  "deployedLinkReferences": {}
}