{
  "_format": "hh-sol-artifact-1",
  "contractName": "Container",
  "sourceName": "solidity/contracts/blendingworlds.sol/Container.sol",
  "abi": [
    {
      "inputs": [
        {
          "internalType": "address",
          "name": "_master",
          "type": "address"
        },
        {
          "internalType": "address",
          "name": "_dev",
          "type": "address"
        }
      ],
      "stateMutability": "nonpayable",
      "type": "constructor"
    },
    {
      "inputs": [],
      "name": "amIFrozen",
      "outputs": [
        {
          "internalType": "bool",
          "name": "",
          "type": "bool"
        }
      ],
      "stateMutability": "view",
      "type": "function"
    },
    {
      "inputs": [],
      "name": "amITrusted",
      "outputs": [
        {
          "internalType": "bool",
          "name": "",
          "type": "bool"
        }
      ],
      "stateMutability": "view",
      "type": "function"
    },
    {
      "inputs": [],
      "name": "amITrustedAndNotFrozen",
      "outputs": [
        {
          "internalType": "bool",
          "name": "",
          "type": "bool"
        }
      ],
      "stateMutability": "view",
      "type": "function"
    },
    {
      "inputs": [
        {
          "internalType": "address",
          "name": "_newDev",
          "type": "address"
        },
        {
          "internalType": "uint8",
          "name": "_v",
          "type": "uint8"
        },
        {
          "internalType": "bytes32",
          "name": "_r",
          "type": "bytes32"
        },
        {
          "internalType": "bytes32",
          "name": "_s",
          "type": "bytes32"
        }
      ],
      "name": "assignDev",
      "outputs": [],
      "stateMutability": "nonpayable",
      "type": "function"
    },
    {
      "inputs": [
        {
          "internalType": "address",
          "name": "_service",
          "type": "address"
        },
        {
          "internalType": "uint8",
          "name": "_v",
          "type": "uint8"
        },
        {
          "internalType": "bytes32",
          "name": "_r",
          "type": "bytes32"
        },
        {
          "internalType": "bytes32",
          "name": "_s",
          "type": "bytes32"
        }
      ],
      "name": "bind",
      "outputs": [],
      "stateMutability": "nonpayable",
      "type": "function"
    },
    {
      "inputs": [
        {
          "internalType": "address",
          "name": "_serviceAddress",
          "type": "address"
        }
      ],
      "name": "canTrust",
      "outputs": [
        {
          "internalType": "bool",
          "name": "",
          "type": "bool"
        }
      ],
      "stateMutability": "view",
      "type": "function"
    },
    {
      "inputs": [
        {
          "internalType": "address[]",
          "name": "_services",
          "type": "address[]"
        },
        {
          "internalType": "address[]",
          "name": "_servicesToFreeze",
          "type": "address[]"
        },
        {
          "internalType": "uint8",
          "name": "_v",
          "type": "uint8"
        },
        {
          "internalType": "bytes32",
          "name": "_r",
          "type": "bytes32"
        },
        {
          "internalType": "bytes32",
          "name": "_s",
          "type": "bytes32"
        }
      ],
      "name": "deploy",
      "outputs": [],
      "stateMutability": "nonpayable",
      "type": "function"
    },
    {
      "inputs": [
        {
          "internalType": "address",
          "name": "_service",
          "type": "address"
        },
        {
          "internalType": "uint8",
          "name": "_v",
          "type": "uint8"
        },
        {
          "internalType": "bytes32",
          "name": "_r",
          "type": "bytes32"
        },
        {
          "internalType": "bytes32",
          "name": "_s",
          "type": "bytes32"
        }
      ],
      "name": "freeze",
      "outputs": [],
      "stateMutability": "nonpayable",
      "type": "function"
    },
    {
      "inputs": [
        {
          "internalType": "address",
          "name": "_service",
          "type": "address"
        }
      ],
      "name": "isFrozen",
      "outputs": [
        {
          "internalType": "bool",
          "name": "",
          "type": "bool"
        }
      ],
      "stateMutability": "view",
      "type": "function"
    },
    {
      "inputs": [
        {
          "internalType": "bytes16",
          "name": "_serviceId",
          "type": "bytes16"
        }
      ],
      "name": "resolve",
      "outputs": [
        {
          "internalType": "address",
          "name": "",
          "type": "address"
        }
      ],
      "stateMutability": "view",
      "type": "function"
    },
    {
      "inputs": [
        {
          "internalType": "address",
          "name": "_service",
          "type": "address"
        },
        {
          "internalType": "uint8",
          "name": "_v",
          "type": "uint8"
        },
        {
          "internalType": "bytes32",
          "name": "_r",
          "type": "bytes32"
        },
        {
          "internalType": "bytes32",
          "name": "_s",
          "type": "bytes32"
        }
      ],
      "name": "unfreeze",
      "outputs": [],
      "stateMutability": "nonpayable",
      "type": "function"
    }
  ],
  "bytecode": "0x608060405234801561001057600080fd5b50604051610ccd380380610ccd83398101604081905261002f9161007c565b600180546001600160a01b039384166001600160a01b031991821617909155600080549290931691161790556100af565b80516001600160a01b038116811461007757600080fd5b919050565b6000806040838503121561008f57600080fd5b61009883610060565b91506100a660208401610060565b90509250929050565b610c0f806100be6000396000f3fe608060405234801561001057600080fd5b50600436106100a95760003560e01c8063d229518911610071578063d229518914610156578063d8e861f21461016e578063d9bc05cb14610181578063daaa501d146101ad578063e5839836146101c0578063f65f2eec146101ec57600080fd5b8063352151fb146100ae578063462f565e146100cb57806372bdc47c146100e3578063922cd09d1461012e578063a28ce29b14610143575b600080fd5b6100b66101ff565b60405190151581526020015b60405180910390f35b3360009081526003602052604090205460ff166100b6565b6101166100f13660046108b3565b6001600160801b0319166000908152600260205260409020546001600160a01b031690565b6040516001600160a01b0390911681526020016100c2565b61014161013c3660046109bc565b610238565b005b610141610151366004610a42565b61058e565b3360009081526004602052604090205460ff166100b6565b61014161017c366004610a42565b610617565b6100b661018f366004610a84565b6001600160a01b031660009081526004602052604090205460ff1690565b6101416101bb366004610a42565b610680565b6100b66101ce366004610a84565b6001600160a01b031660009081526003602052604090205460ff1690565b6101416101fa366004610a42565b610716565b3360009081526004602052604081205460ff161515600114801561023357503360009081526003602052604090205460ff16155b905090565b60006040518060400160405280601a8152602001600080516020610bba83398151915281525060405160200161026e9190610ac3565b604051602081830303815290604052905060005b8651811015610357578187828151811061029e5761029e610adf565b60200260200101516001600160a01b031663392928186040518163ffffffff1660e01b8152600401602060405180830381865afa1580156102e3573d6000803e3d6000fd5b505050506040513d601f19601f820116820180604052508101906103079190610af5565b88838151811061031957610319610adf565b602002602001015160405160200161033393929190610b12565b6040516020818303038152906040529150808061034f90610b5b565b915050610282565b5060005b85518110156103b4578186828151811061037757610377610adf565b6020026020010151604051602001610390929190610b82565b604051602081830303815290604052915080806103ac90610b5b565b91505061035b565b50600054815160208301206103d5916001600160a01b031690868686610818565b60005b865181101561051c578681815181106103f3576103f3610adf565b60200260200101516002600089848151811061041157610411610adf565b60200260200101516001600160a01b031663392928186040518163ffffffff1660e01b8152600401602060405180830381865afa158015610456573d6000803e3d6000fd5b505050506040513d601f19601f8201168201806040525081019061047a9190610af5565b6001600160801b0319166001600160801b031916815260200190815260200160002060006101000a8154816001600160a01b0302191690836001600160a01b031602179055506001600460008984815181106104d8576104d8610adf565b6020908102919091018101516001600160a01b03168252810191909152604001600020805460ff19169115159190911790558061051481610b5b565b9150506103d8565b5060005b85518110156105855760016003600088848151811061054157610541610adf565b6020908102919091018101516001600160a01b03168252810191909152604001600020805460ff19169115159190911790558061057d81610b5b565b915050610520565b50505050505050565b600154604080518082018252601a8152600080516020610bba83398151915260208083019190915291516105f1936001600160a01b0316926105d39291899101610b82565b60405160208183030381529060405280519060200120858585610818565b5050600080546001600160a01b0319166001600160a01b03939093169290921790915550565b600054604080518082018252601a8152600080516020610bba833981519152602080830191909152915161065c936001600160a01b0316926105d39291899101610b82565b5050506001600160a01b03166000908152600360205260409020805460ff19169055565b6001600160a01b03841660009081526004602052604090205460ff1615156001146106aa57600080fd5b600054604080518082018252601a8152600080516020610bba83398151915260208083019190915291516106ef936001600160a01b0316926105d39291899101610b82565b5050506001600160a01b03166000908152600360205260409020805460ff19166001179055565b600054604080518082018252601a8152600080516020610bba833981519152602080830191909152915161075b936001600160a01b0316926105d39291899101610b82565b8360026000866001600160a01b031663392928186040518163ffffffff1660e01b8152600401602060405180830381865afa15801561079e573d6000803e3d6000fd5b505050506040513d601f19601f820116820180604052508101906107c29190610af5565b6001600160801b03191681526020808201929092526040908101600090812080546001600160a01b0319166001600160a01b0395861617905596909216865260049052909320805460ff19166001179055505050565b60408051600081526020810180835286905260ff85169181019190915260608101839052608081018290526001600160a01b0386169060019060a0016020604051602081039080840390855afa158015610876573d6000803e3d6000fd5b505050602060405103516001600160a01b03161461089357600080fd5b5050505050565b6001600160801b0319811681146108b057600080fd5b50565b6000602082840312156108c557600080fd5b81356108d08161089a565b9392505050565b634e487b7160e01b600052604160045260246000fd5b80356001600160a01b038116811461090457600080fd5b919050565b600082601f83011261091a57600080fd5b8135602067ffffffffffffffff80831115610937576109376108d7565b8260051b604051601f19603f8301168101818110848211171561095c5761095c6108d7565b60405293845285810183019383810192508785111561097a57600080fd5b83870191505b848210156109a057610991826108ed565b83529183019190830190610980565b979650505050505050565b803560ff8116811461090457600080fd5b600080600080600060a086880312156109d457600080fd5b853567ffffffffffffffff808211156109ec57600080fd5b6109f889838a01610909565b96506020880135915080821115610a0e57600080fd5b50610a1b88828901610909565b945050610a2a604087016109ab565b94979396509394606081013594506080013592915050565b60008060008060808587031215610a5857600080fd5b610a61856108ed565b9350610a6f602086016109ab565b93969395505050506040820135916060013590565b600060208284031215610a9657600080fd5b6108d0826108ed565b60005b83811015610aba578181015183820152602001610aa2565b50506000910152565b60008251610ad5818460208701610a9f565b9190910192915050565b634e487b7160e01b600052603260045260246000fd5b600060208284031215610b0757600080fd5b81516108d08161089a565b60008451610b24818460208901610a9f565b6001600160801b0319949094169190930190815260609190911b6bffffffffffffffffffffffff1916601082015260240192915050565b600060018201610b7b57634e487b7160e01b600052601160045260246000fd5b5060010190565b60008351610b94818460208801610a9f565b60609390931b6bffffffffffffffffffffffff1916919092019081526014019291505056fe19457468657265756d205369676e6564204d6573736167653a0a000000000000a2646970667358221220480918bc8715333491b5839b9c34a7d6c8c4ab6a7052c1369e0a724c52205f9464736f6c63430008110033",
  "linkReferences": {},
  "deployedLinkReferences": {}
}